{
  "contractName": "PeaceCoinSavingsWallet",
  "abi": [
    {
      "constant": false,
      "inputs": [],
      "name": "claimHeirOwnership",
      "outputs": [],
      "payable": false,
      "stateMutability": "nonpayable",
      "type": "function"
    },
    {
      "constant": false,
      "inputs": [
        {
          "name": "newHeir",
          "type": "address"
        }
      ],
      "name": "setHeir",
      "outputs": [],
      "payable": false,
      "stateMutability": "nonpayable",
      "type": "function"
    },
    {
      "constant": false,
      "inputs": [],
      "name": "proclaimDeath",
      "outputs": [],
      "payable": false,
      "stateMutability": "nonpayable",
      "type": "function"
    },
    {
      "constant": false,
      "inputs": [],
      "name": "heartbeat",
      "outputs": [],
      "payable": false,
      "stateMutability": "nonpayable",
      "type": "function"
    },
    {
      "constant": true,
      "inputs": [],
      "name": "heartbeatTimeout",
      "outputs": [
        {
          "name": "",
          "type": "uint256"
        }
      ],
      "payable": false,
      "stateMutability": "view",
      "type": "function"
    },
    {
      "constant": true,
      "inputs": [],
      "name": "owner",
      "outputs": [
        {
          "name": "",
          "type": "address"
        }
      ],
      "payable": false,
      "stateMutability": "view",
      "type": "function"
    },
    {
      "constant": true,
      "inputs": [],
      "name": "heir",
      "outputs": [
        {
          "name": "",
          "type": "address"
        }
      ],
      "payable": false,
      "stateMutability": "view",
      "type": "function"
    },
    {
      "constant": true,
      "inputs": [],
      "name": "timeOfDeath",
      "outputs": [
        {
          "name": "",
          "type": "uint256"
        }
      ],
      "payable": false,
      "stateMutability": "view",
      "type": "function"
    },
    {
      "constant": false,
      "inputs": [],
      "name": "removeHeir",
      "outputs": [],
      "payable": false,
      "stateMutability": "nonpayable",
      "type": "function"
    },
    {
      "constant": false,
      "inputs": [
        {
          "name": "newOwner",
          "type": "address"
        }
      ],
      "name": "transferOwnership",
      "outputs": [],
      "payable": false,
      "stateMutability": "nonpayable",
      "type": "function"
    },
    {
      "inputs": [
        {
          "name": "_heartbeatTimeout",
          "type": "uint256"
        }
      ],
      "payable": false,
      "stateMutability": "nonpayable",
      "type": "constructor"
    },
    {
      "payable": true,
      "stateMutability": "payable",
      "type": "fallback"
    },
    {
      "anonymous": false,
      "inputs": [
        {
          "indexed": true,
          "name": "payee",
          "type": "address"
        },
        {
          "indexed": false,
          "name": "amount",
          "type": "uint256"
        },
        {
          "indexed": false,
          "name": "balance",
          "type": "uint256"
        }
      ],
      "name": "Sent",
      "type": "event"
    },
    {
      "anonymous": false,
      "inputs": [
        {
          "indexed": true,
          "name": "payer",
          "type": "address"
        },
        {
          "indexed": false,
          "name": "amount",
          "type": "uint256"
        },
        {
          "indexed": false,
          "name": "balance",
          "type": "uint256"
        }
      ],
      "name": "Received",
      "type": "event"
    },
    {
      "anonymous": false,
      "inputs": [
        {
          "indexed": true,
          "name": "owner",
          "type": "address"
        },
        {
          "indexed": true,
          "name": "newHeir",
          "type": "address"
        }
      ],
      "name": "HeirChanged",
      "type": "event"
    },
    {
      "anonymous": false,
      "inputs": [
        {
          "indexed": true,
          "name": "owner",
          "type": "address"
        }
      ],
      "name": "OwnerHeartbeated",
      "type": "event"
    },
    {
      "anonymous": false,
      "inputs": [
        {
          "indexed": true,
          "name": "owner",
          "type": "address"
        },
        {
          "indexed": true,
          "name": "heir",
          "type": "address"
        },
        {
          "indexed": false,
          "name": "timeOfDeath",
          "type": "uint256"
        }
      ],
      "name": "OwnerProclaimedDead",
      "type": "event"
    },
    {
      "anonymous": false,
      "inputs": [
        {
          "indexed": true,
          "name": "previousOwner",
          "type": "address"
        },
        {
          "indexed": true,
          "name": "newOwner",
          "type": "address"
        }
      ],
      "name": "HeirOwnershipClaimed",
      "type": "event"
    },
    {
      "anonymous": false,
      "inputs": [
        {
          "indexed": true,
          "name": "previousOwner",
          "type": "address"
        },
        {
          "indexed": true,
          "name": "newOwner",
          "type": "address"
        }
      ],
      "name": "OwnershipTransferred",
      "type": "event"
    },
    {
      "constant": false,
      "inputs": [
        {
          "name": "payee",
          "type": "address"
        },
        {
          "name": "amount",
          "type": "uint256"
        }
      ],
      "name": "sendTo",
      "outputs": [],
      "payable": false,
      "stateMutability": "nonpayable",
      "type": "function"
    }
  ],
  "bytecode": "0x608060405234801561001057600080fd5b5060405160208061071d833981016040525160008054600160a060020a03191633179055806100478164010000000061004e810204565b505061008d565b600054600160a060020a0316331461006557600080fd5b610076640100000000610086810204565b151561008157600080fd5b600255565b6003541590565b6106818061009c6000396000f3006080604052600436106100ae5763ffffffff7c01000000000000000000000000000000000000000000000000000000006000350416631c921e1681146100ea57806323defc771461010157806324845131146101225780633defb962146101375780637bca38be1461014c5780638da5cb5b1461017357806391f2ebb8146101a45780639e1a00aa146101b9578063b4a8f3e6146101dd578063ebf88de4146101f2578063f2fde38b14610207575b6040805134815230316020820152815133927f74cf3d18d0ddca79038197ad0dd2c7fa5005ef61a5d1ed190e8a8a437e2fcf10928290030190a2005b3480156100f657600080fd5b506100ff610228565b005b34801561010d57600080fd5b506100ff600160a060020a0360043516610312565b34801561012e57600080fd5b506100ff6103b4565b34801561014357600080fd5b506100ff610430565b34801561015857600080fd5b50610161610484565b60408051918252519081900360200190f35b34801561017f57600080fd5b5061018861048a565b60408051600160a060020a039092168252519081900360200190f35b3480156101b057600080fd5b50610188610499565b3480156101c557600080fd5b506100ff600160a060020a03600435166024356104a8565b3480156101e957600080fd5b50610161610576565b3480156101fe57600080fd5b506100ff61057c565b34801561021357600080fd5b506100ff600160a060020a03600435166105ba565b600154600160a060020a0316331461023f57600080fd5b61024761064e565b1561025157600080fd5b6002546003540142101561026457600080fd5b60015460008054604051600160a060020a0393841693909116917f8be0079c531659141344cd1fd0a4f28419497f9722a3daafe3b4186f6b6457e091a360015460008054604051600160a060020a0393841693909116917f1017a357e19071e4408dbd385f24e591aa5bcee52b444dc0c8abddbe6ad29de691a36001546000805473ffffffffffffffffffffffffffffffffffffffff1916600160a060020a03909216919091178155600355565b600054600160a060020a0316331461032957600080fd5b600054600160a060020a038281169116141561034457600080fd5b61034c610430565b60008054604051600160a060020a03808516939216917f4e6093f85fa64484abd692810d8a44d508792ff7b7a021d9fbd69fa1c6ff18a091a36001805473ffffffffffffffffffffffffffffffffffffffff1916600160a060020a0392909216919091179055565b600154600160a060020a031633146103cb57600080fd5b6103d361064e565b15156103de57600080fd5b6001546000546003546040805191825251600160a060020a039384169392909216917f66389f1f3251c39e71cb18351daefea45bda23e98df0767266b8aed4ff9382779181900360200190a342600355565b600054600160a060020a0316331461044757600080fd5b60008054604051600160a060020a03909116917fd40b9d9a7572411aff4bbb95ba7bd9a9d4e9b70747ec46f8fe7913c309b6845291a26000600355565b60025490565b600054600160a060020a031681565b600154600160a060020a031690565b600054600160a060020a031633146104bf57600080fd5b600160a060020a038216158015906104e05750600160a060020a0382163014155b15156104eb57600080fd5b600081116104f857600080fd5b604051600160a060020a0383169082156108fc029083906000818181858888f1935050505015801561052e573d6000803e3d6000fd5b5060408051828152303160208201528151600160a060020a038516927f6356739d963da01dc3533acba7203430fcc14f2175d48a8dd0973d7db49c785e928290030190a25050565b60035490565b600054600160a060020a0316331461059357600080fd5b61059b610430565b6001805473ffffffffffffffffffffffffffffffffffffffff19169055565b600054600160a060020a031633146105d157600080fd5b600160a060020a03811615156105e657600080fd5b60008054604051600160a060020a03808516939216917f8be0079c531659141344cd1fd0a4f28419497f9722a3daafe3b4186f6b6457e091a36000805473ffffffffffffffffffffffffffffffffffffffff1916600160a060020a0392909216919091179055565b60035415905600a165627a7a723058201cd3a2f32f1914a4b2d20f19731537a8842a7664a335b116ffe21c046da608eb0029",
  "source": "pragma solidity ^0.4.21;\n\nimport \"zeppelin-solidity/contracts/ownership/Heritable.sol\";\n\n/**\n * @title Peace Coin Savings Wallet\n */\ncontract PeaceCoinSavingsWallet is Heritable {\n\n  event Sent(address indexed payee, uint256 amount, uint256 balance);\n  event Received(address indexed payer, uint256 amount, uint256 balance);\n\n\n  function PeaceCoinSavingsWallet(uint256 _heartbeatTimeout) Heritable(_heartbeatTimeout) public {}\n\n  /**\n   * @dev wallet can receive funds.\n   */\n  function () public payable {\n    emit Received(msg.sender, msg.value, address(this).balance);\n  }\n\n  /**\n   * @dev wallet can send funds\n   */\n  function sendTo(address payee, uint256 amount) public onlyOwner {\n    require(payee != 0 && payee != address(this));\n    require(amount > 0);\n    payee.transfer(amount);\n    emit Sent(payee, amount, address(this).balance);\n  }\n}\n",
  "sourcePath": "/Users/takeo/Application/blockchain/Peace-Coin/ico-contracts/contracts/PeaceCoinSavingsWallet.sol",
  "compiler": {
    "name": "solc",
    "version": "0.4.24+commit.e67f0147.Emscripten.clang"
  },
  "schemaVersion": "2.0.0",
  "updatedAt": "2018-06-10T06:46:10.675Z"
}