{
  "contractName": "PeaceCoinCrowdsale",
  "abi": [
    {
      "constant": true,
      "inputs": [],
      "name": "hasClosed",
      "outputs": [
        {
          "name": "",
          "type": "bool"
        }
      ],
      "payable": false,
      "stateMutability": "view",
      "type": "function"
    },
    {
      "constant": true,
      "inputs": [],
      "name": "rate",
      "outputs": [
        {
          "name": "",
          "type": "uint256"
        }
      ],
      "payable": false,
      "stateMutability": "view",
      "type": "function"
    },
    {
      "constant": true,
      "inputs": [],
      "name": "cap",
      "outputs": [
        {
          "name": "",
          "type": "uint256"
        }
      ],
      "payable": false,
      "stateMutability": "view",
      "type": "function"
    },
    {
      "constant": false,
      "inputs": [],
      "name": "unpause",
      "outputs": [],
      "payable": false,
      "stateMutability": "nonpayable",
      "type": "function"
    },
    {
      "constant": true,
      "inputs": [],
      "name": "goal",
      "outputs": [
        {
          "name": "",
          "type": "uint256"
        }
      ],
      "payable": false,
      "stateMutability": "view",
      "type": "function"
    },
    {
      "constant": true,
      "inputs": [],
      "name": "weiRaised",
      "outputs": [
        {
          "name": "",
          "type": "uint256"
        }
      ],
      "payable": false,
      "stateMutability": "view",
      "type": "function"
    },
    {
      "constant": true,
      "inputs": [],
      "name": "closingTime",
      "outputs": [
        {
          "name": "",
          "type": "uint256"
        }
      ],
      "payable": false,
      "stateMutability": "view",
      "type": "function"
    },
    {
      "constant": false,
      "inputs": [],
      "name": "finalize",
      "outputs": [],
      "payable": false,
      "stateMutability": "nonpayable",
      "type": "function"
    },
    {
      "constant": true,
      "inputs": [],
      "name": "capReached",
      "outputs": [
        {
          "name": "",
          "type": "bool"
        }
      ],
      "payable": false,
      "stateMutability": "view",
      "type": "function"
    },
    {
      "constant": true,
      "inputs": [],
      "name": "wallet",
      "outputs": [
        {
          "name": "",
          "type": "address"
        }
      ],
      "payable": false,
      "stateMutability": "view",
      "type": "function"
    },
    {
      "constant": true,
      "inputs": [],
      "name": "paused",
      "outputs": [
        {
          "name": "",
          "type": "bool"
        }
      ],
      "payable": false,
      "stateMutability": "view",
      "type": "function"
    },
    {
      "constant": true,
      "inputs": [],
      "name": "presaleInvestment",
      "outputs": [
        {
          "name": "",
          "type": "uint256"
        }
      ],
      "payable": false,
      "stateMutability": "view",
      "type": "function"
    },
    {
      "constant": false,
      "inputs": [],
      "name": "pause",
      "outputs": [],
      "payable": false,
      "stateMutability": "nonpayable",
      "type": "function"
    },
    {
      "constant": true,
      "inputs": [],
      "name": "isFinalized",
      "outputs": [
        {
          "name": "",
          "type": "bool"
        }
      ],
      "payable": false,
      "stateMutability": "view",
      "type": "function"
    },
    {
      "constant": true,
      "inputs": [],
      "name": "owner",
      "outputs": [
        {
          "name": "",
          "type": "address"
        }
      ],
      "payable": false,
      "stateMutability": "view",
      "type": "function"
    },
    {
      "constant": true,
      "inputs": [],
      "name": "openingTime",
      "outputs": [
        {
          "name": "",
          "type": "uint256"
        }
      ],
      "payable": false,
      "stateMutability": "view",
      "type": "function"
    },
    {
      "constant": false,
      "inputs": [
        {
          "name": "_beneficiary",
          "type": "address"
        }
      ],
      "name": "buyTokens",
      "outputs": [],
      "payable": true,
      "stateMutability": "payable",
      "type": "function"
    },
    {
      "constant": false,
      "inputs": [
        {
          "name": "newOwner",
          "type": "address"
        }
      ],
      "name": "transferOwnership",
      "outputs": [],
      "payable": false,
      "stateMutability": "nonpayable",
      "type": "function"
    },
    {
      "constant": true,
      "inputs": [],
      "name": "vault",
      "outputs": [
        {
          "name": "",
          "type": "address"
        }
      ],
      "payable": false,
      "stateMutability": "view",
      "type": "function"
    },
    {
      "constant": true,
      "inputs": [],
      "name": "token",
      "outputs": [
        {
          "name": "",
          "type": "address"
        }
      ],
      "payable": false,
      "stateMutability": "view",
      "type": "function"
    },
    {
      "inputs": [
        {
          "name": "_openingTime",
          "type": "uint256"
        },
        {
          "name": "_closingTime",
          "type": "uint256"
        },
        {
          "name": "_rate",
          "type": "uint256"
        },
        {
          "name": "_wallet",
          "type": "address"
        },
        {
          "name": "_cap",
          "type": "uint256"
        },
        {
          "name": "_token",
          "type": "address"
        },
        {
          "name": "_goal",
          "type": "uint256"
        },
        {
          "name": "_presaleInvestment",
          "type": "uint256"
        }
      ],
      "payable": false,
      "stateMutability": "nonpayable",
      "type": "constructor"
    },
    {
      "payable": true,
      "stateMutability": "payable",
      "type": "fallback"
    },
    {
      "anonymous": false,
      "inputs": [],
      "name": "Pause",
      "type": "event"
    },
    {
      "anonymous": false,
      "inputs": [],
      "name": "Unpause",
      "type": "event"
    },
    {
      "anonymous": false,
      "inputs": [],
      "name": "Finalized",
      "type": "event"
    },
    {
      "anonymous": false,
      "inputs": [
        {
          "indexed": true,
          "name": "previousOwner",
          "type": "address"
        },
        {
          "indexed": true,
          "name": "newOwner",
          "type": "address"
        }
      ],
      "name": "OwnershipTransferred",
      "type": "event"
    },
    {
      "anonymous": false,
      "inputs": [
        {
          "indexed": true,
          "name": "purchaser",
          "type": "address"
        },
        {
          "indexed": true,
          "name": "beneficiary",
          "type": "address"
        },
        {
          "indexed": false,
          "name": "value",
          "type": "uint256"
        },
        {
          "indexed": false,
          "name": "amount",
          "type": "uint256"
        }
      ],
      "name": "TokenPurchase",
      "type": "event"
    },
    {
      "constant": true,
      "inputs": [],
      "name": "getCurrentRate",
      "outputs": [
        {
          "name": "",
          "type": "uint256"
        }
      ],
      "payable": false,
      "stateMutability": "view",
      "type": "function"
    },
    {
      "constant": true,
      "inputs": [],
      "name": "getAmountOfInvestment",
      "outputs": [
        {
          "name": "",
          "type": "uint256"
        }
      ],
      "payable": false,
      "stateMutability": "view",
      "type": "function"
    },
    {
      "constant": false,
      "inputs": [],
      "name": "claimRefund",
      "outputs": [],
      "payable": false,
      "stateMutability": "nonpayable",
      "type": "function"
    },
    {
      "constant": true,
      "inputs": [],
      "name": "goalReached",
      "outputs": [
        {
          "name": "",
          "type": "bool"
        }
      ],
      "payable": false,
      "stateMutability": "view",
      "type": "function"
    }
  ],
  "bytecode": "0x60806040526007805460a060020a61ffff021916905534801561002157600080fd5b50604051610100806113a083398101604090815281516020830151918301516060840151608085015160a086015160c087015160e09097015194969394929391929091908787858888876000831161007857600080fd5b600160a060020a038216151561008d57600080fd5b600160a060020a03811615156100a257600080fd5b60029290925560018054600160a060020a03928316600160a060020a0319918216179091556000805492909316911617815581116100df57600080fd5b600455428210156100ef57600080fd5b818110156100fc57600080fd5b60059190915560065560078054600160a060020a031916331790558382111561012457600080fd5b6000821161013157600080fd5b600a8190556008829055846101446101a0565b600160a060020a03909116815260405190819003602001906000f080158015610171573d6000803e3d6000fd5b5060098054600160a060020a031916600160a060020a0392909216919091179055506101b09650505050505050565b6040516105fb80610da583390190565b610be6806101bf6000396000f3006080604052600436106101245763ffffffff60e060020a6000350416631515bc2b811461012f5780632c4e722e14610158578063327bba631461017f578063355274ea146101945780633f4ba83a146101a957806340193883146101be5780634042b66f146101d35780634b6753bc146101e85780634bb278f3146101fd5780634f93594514610212578063521eb273146102275780635c975abb146102585780636d752f041461026d5780637d3d6522146102825780638456cb59146102975780638d4e4083146102ac5780638da5cb5b146102c1578063b5545a3c146102d6578063b7a8807c146102eb578063ec8ac4d814610300578063f2fde38b14610314578063f7fb07b014610335578063fbfa77cf1461034a578063fc0c546a1461035f575b61012d33610374565b005b34801561013b57600080fd5b50610144610416565b604080519115158252519081900360200190f35b34801561016457600080fd5b5061016d61041e565b60408051918252519081900360200190f35b34801561018b57600080fd5b5061016d610424565b3480156101a057600080fd5b5061016d610442565b3480156101b557600080fd5b5061012d610448565b3480156101ca57600080fd5b5061016d6104c1565b3480156101df57600080fd5b5061016d6104c7565b3480156101f457600080fd5b5061016d6104cd565b34801561020957600080fd5b5061012d6104d3565b34801561021e57600080fd5b5061014461058d565b34801561023357600080fd5b5061023c610598565b60408051600160a060020a039092168252519081900360200190f35b34801561026457600080fd5b506101446105a7565b34801561027957600080fd5b5061016d6105b7565b34801561028e57600080fd5b506101446105bd565b3480156102a357600080fd5b5061012d6105e0565b3480156102b857600080fd5b5061014461065e565b3480156102cd57600080fd5b5061023c61067f565b3480156102e257600080fd5b5061012d61068e565b3480156102f757600080fd5b5061016d610748565b61012d600160a060020a0360043516610374565b34801561032057600080fd5b5061012d600160a060020a036004351661074e565b34801561034157600080fd5b5061016d6107e3565b34801561035657600080fd5b5061023c61087f565b34801561036b57600080fd5b5061023c61088e565b346000610381838361089d565b61038a826108c2565b6003549091506103a0908363ffffffff6108e616565b6003556103ad83826108f9565b60408051838152602081018390528151600160a060020a0386169233927f623b3804fa71d67900d064613da8f94b9617215ee90799290593e1745087ad18929081900390910190a36103ff83836108be565b610407610903565b61041183836108be565b505050565b600654421190565b60025481565b600061043d600a546003546108e690919063ffffffff16565b905090565b60045481565b600754600160a060020a0316331461045f57600080fd5b60075460a860020a900460ff16151561047757600080fd5b6007805475ff000000000000000000000000000000000000000000191690556040517f7805862f689e2f13df9f062ff482ad3ad112aca9e0847911ed832e158c525b3390600090a1565b60085481565b60035481565b60065481565b600754600160a060020a031633146104ea57600080fd5b60075474010000000000000000000000000000000000000000900460ff161561051257600080fd5b61051a610416565b151561052557600080fd5b61052d610984565b6040517f6823b073d48d6e3a7d385eeb601452d680e74bb46afe3255a7d778f3a9b1768190600090a16007805474ff0000000000000000000000000000000000000000191674010000000000000000000000000000000000000000179055565b600454600354101590565b600154600160a060020a031681565b60075460a860020a900460ff1681565b600a5481565b60006008546105d9600a546003546108e690919063ffffffff16565b1015905090565b600754600160a060020a031633146105f757600080fd5b60075460a860020a900460ff161561060e57600080fd5b6007805475ff000000000000000000000000000000000000000000191660a860020a1790556040517f6985a02210a168e66602d3235cb6db0e70f92b3ba4d376a33c0f3d9434bff62590600090a1565b60075474010000000000000000000000000000000000000000900460ff1681565b600754600160a060020a031681565b60075474010000000000000000000000000000000000000000900460ff1615156106b757600080fd5b6106bf6105bd565b156106c957600080fd5b600954604080517ffa89401a0000000000000000000000000000000000000000000000000000000081523360048201529051600160a060020a039092169163fa89401a9160248082019260009290919082900301818387803b15801561072e57600080fd5b505af1158015610742573d6000803e3d6000fd5b50505050565b60055481565b600754600160a060020a0316331461076557600080fd5b600160a060020a038116151561077a57600080fd5b600754604051600160a060020a038084169216907f8be0079c531659141344cd1fd0a4f28419497f9722a3daafe3b4186f6b6457e090600090a36007805473ffffffffffffffffffffffffffffffffffffffff1916600160a060020a0392909216919091179055565b600254600554600091906108009062093a8063ffffffff6108e616565b421161080f575061426861087a565b600554610825906212750063ffffffff6108e616565b42116108345750613e8061087a565b60055461084a90621baf8063ffffffff6108e616565b42116108595750613a9861087a565b60055461086f906224ea0063ffffffff6108e616565b421161087a57506136b05b919050565b600954600160a060020a031681565b600054600160a060020a031681565b60075460a860020a900460ff16156108b457600080fd5b6108be8282610a73565b5050565b6000806108cd6107e3565b90506108df818463ffffffff610a9c16565b9392505050565b818101828110156108f357fe5b92915050565b6108be8282610ac5565b600954604080517ff340fa010000000000000000000000000000000000000000000000000000000081523360048201529051600160a060020a039092169163f340fa01913491602480830192600092919082900301818588803b15801561096957600080fd5b505af115801561097d573d6000803e3d6000fd5b5050505050565b61098c6105bd565b15610a0157600960009054906101000a9004600160a060020a0316600160a060020a03166343d726d66040518163ffffffff1660e060020a028152600401600060405180830381600087803b1580156109e457600080fd5b505af11580156109f8573d6000803e3d6000fd5b50505050610a6d565b600960009054906101000a9004600160a060020a0316600160a060020a0316638c52dc416040518163ffffffff1660e060020a028152600401600060405180830381600087803b158015610a5457600080fd5b505af1158015610a68573d6000803e3d6000fd5b505050505b610a715b565b6005544210158015610a8757506006544211155b1515610a9257600080fd5b6108be8282610b6e565b6000821515610aad575060006108f3565b50818102818382811515610abd57fe5b04146108f357fe5b60008054604080517f40c10f19000000000000000000000000000000000000000000000000000000008152600160a060020a03868116600483015260248201869052915191909216926340c10f1992604480820193602093909283900390910190829087803b158015610b3757600080fd5b505af1158015610b4b573d6000803e3d6000fd5b505050506040513d6020811015610b6157600080fd5b505115156108be57600080fd5b610b788282610b99565b600454600354610b8e908363ffffffff6108e616565b11156108be57600080fd5b600160a060020a0382161515610bae57600080fd5b8015156108be57600080fd00a165627a7a72305820e81b2449ae132d4a749e7852c84c7d7236d4b08d0b6facbd5c22cc789792ca010029608060405234801561001057600080fd5b506040516020806105fb833981016040525160008054600160a060020a03191633179055600160a060020a038116151561004957600080fd5b60028054600160a060020a031916600160a060020a03929092169190911760a060020a60ff0219169055610579806100826000396000f3006080604052600436106100985763ffffffff7c010000000000000000000000000000000000000000000000000000000060003504166343d726d6811461009d578063521eb273146100b45780638c52dc41146100e55780638da5cb5b146100fa578063c19d93fb1461010f578063cb13cddb14610148578063f2fde38b1461017b578063f340fa011461019c578063fa89401a146101b0575b600080fd5b3480156100a957600080fd5b506100b26101d1565b005b3480156100c057600080fd5b506100c96102a7565b60408051600160a060020a039092168252519081900360200190f35b3480156100f157600080fd5b506100b26102b6565b34801561010657600080fd5b506100c9610340565b34801561011b57600080fd5b5061012461034f565b6040518082600281111561013457fe5b60ff16815260200191505060405180910390f35b34801561015457600080fd5b50610169600160a060020a036004351661035f565b60408051918252519081900360200190f35b34801561018757600080fd5b506100b2600160a060020a0360043516610371565b6100b2600160a060020a0360043516610405565b3480156101bc57600080fd5b506100b2600160a060020a0360043516610485565b600054600160a060020a031633146101e857600080fd5b60006002805460a060020a900460ff169081111561020257fe5b1461020c57600080fd5b6002805474ff00000000000000000000000000000000000000001916740200000000000000000000000000000000000000001790556040517f1cdde67b72a90f19919ac732a437ac2f7a10fc128d28c2a6e525d89ce5cd9d3a90600090a1600254604051600160a060020a0390911690303180156108fc02916000818181858888f193505050501580156102a4573d6000803e3d6000fd5b50565b600254600160a060020a031681565b600054600160a060020a031633146102cd57600080fd5b60006002805460a060020a900460ff16908111156102e757fe5b146102f157600080fd5b6002805474ff0000000000000000000000000000000000000000191660a060020a1790556040517f599d8e5a83cffb867d051598c4d70e805d59802d8081c1c7d6dffc5b6aca2b8990600090a1565b600054600160a060020a031681565b60025460a060020a900460ff1681565b60016020526000908152604090205481565b600054600160a060020a0316331461038857600080fd5b600160a060020a038116151561039d57600080fd5b60008054604051600160a060020a03808516939216917f8be0079c531659141344cd1fd0a4f28419497f9722a3daafe3b4186f6b6457e091a36000805473ffffffffffffffffffffffffffffffffffffffff1916600160a060020a0392909216919091179055565b600054600160a060020a0316331461041c57600080fd5b60006002805460a060020a900460ff169081111561043657fe5b1461044057600080fd5b600160a060020a038116600090815260016020526040902054610469903463ffffffff61053a16565b600160a060020a03909116600090815260016020526040902055565b600060016002805460a060020a900460ff16908111156104a157fe5b146104ab57600080fd5b50600160a060020a038116600081815260016020526040808220805490839055905190929183156108fc02918491818181858888f193505050501580156104f6573d6000803e3d6000fd5b50604080518281529051600160a060020a038416917fd7dee2702d63ad89917b6a4da9981c90c4d24f8c2bdfd64c604ecae57d8d0651919081900360200190a25050565b8181018281101561054757fe5b929150505600a165627a7a7230582002dd8b539598188de45557351eec5a041f181556fc342954ad1c7960d80eeabd0029",
  "source": "pragma solidity ^0.4.23;\n\nimport \"zeppelin-solidity/contracts/crowdsale/validation/CappedCrowdsale.sol\";\nimport \"zeppelin-solidity/contracts/crowdsale/emission/MintedCrowdsale.sol\";\nimport \"zeppelin-solidity/contracts/token/ERC20/MintableToken.sol\";\nimport \"zeppelin-solidity/contracts/lifecycle/Pausable.sol\";\nimport \"zeppelin-solidity/contracts/crowdsale/distribution//FinalizableCrowdsale.sol\";\nimport \"zeppelin-solidity/contracts/crowdsale/distribution/utils/RefundVault.sol\";\n\n/**\n * @title Peace Coin Crowdsale powered by Zeppelin@1.9.0\n */\ncontract PeaceCoinCrowdsale is CappedCrowdsale, FinalizableCrowdsale, MintedCrowdsale, Pausable {\n\n  using SafeMath for uint256;\n\n  // minimum amount of funds to be raised in weis\n  uint256 public goal;\n\n  // refund vault used to hold funds while crowdsale is running\n  RefundVault public vault;\n\n  // Presale Investment Ammount \n  uint256 public presaleInvestment;\n\n  // Crowdsale ETH-PCE Rate\n  uint256 constant CROWDSALE_RATE_WEEK_1 = 17000;\n  uint256 constant CROWDSALE_RATE_WEEK_2 = 16000;\n  uint256 constant CROWDSALE_RATE_WEEK_3 = 15000;\n  uint256 constant CROWDSALE_RATE_WEEK_4 = 14000;\n\n  // _openingTime is 2018-06-08 00:00:00 UTC\n  // _closingTime is 2018-07-07 00:00:00 UTC\n  // Those are stated in deploy contracts.\n\n  function PeaceCoinCrowdsale(\n    uint256 _openingTime,\n    uint256 _closingTime,\n    uint256 _rate,\n    address _wallet,\n    uint256 _cap,\n    MintableToken _token,\n    uint256 _goal,\n    uint256 _presaleInvestment\n  )\n    public\n    Crowdsale(_rate, _wallet, _token)\n    CappedCrowdsale(_cap)\n    TimedCrowdsale(_openingTime, _closingTime)\n  {\n    //the value has to be less or equal than a cap\n    require(_goal <= _cap);\n    require(_goal > 0);\n    presaleInvestment = _presaleInvestment;\n    goal = _goal;\n    vault = new RefundVault(_wallet);\n  }\n  \n  /**\n   * @dev Returns the rate of tokens per wei at the present time.\n   * Note that, as price _increases_ with time, the rate _decreases_.\n   * @return The number of tokens a buyer gets per wei at a given time\n   */\n  function getCurrentRate() public view returns (uint256) {\n    \n    uint256 currentRate = rate;\n    \n    if (now <= openingTime.add(1 weeks)) {\n      // Till 2018-06-15 00:00:00 UTC\n      currentRate = CROWDSALE_RATE_WEEK_1;\n    } else if (now <= openingTime.add(2 weeks)) {\n      // Till 2018-06-22 00:00:00 UTC\n      currentRate = CROWDSALE_RATE_WEEK_2;\n    } else if (now <= openingTime.add(3 weeks)) {\n      // Till 2018-06-29 00:00:00 UTC\n      currentRate = CROWDSALE_RATE_WEEK_3;\n    } else if (now <= openingTime.add(4 weeks)) {\n      // Till 2018-07-06 00:00:00 UTÇ\n      currentRate = CROWDSALE_RATE_WEEK_4;\n    }\n\n    return currentRate;\n  }\n  \n  /**\n   * @param _weiAmount The value in wei to be converted into tokens\n   * @return The number of tokens _weiAmount wei will buy at present time\n   */\n  function _getTokenAmount(uint256 _weiAmount)\n    internal view returns (uint256)\n  {\n    uint256 currentRate = getCurrentRate();\n    return currentRate.mul(_weiAmount);\n  }  \n\n  /**\n   * @dev return Amount of Investment so far\n   */\n  function getAmountOfInvestment() public view returns(uint256) {\n      return weiRaised.add(presaleInvestment);\n  }\n\n  /**\n   * @dev Validation of an incoming purchase. Use require statements to revert state when conditions are not met. Use super to concatenate validations.\n   * @param _beneficiary Address performing the token purchase\n   * @param _weiAmount Value in wei involved in the purchase\n   */\n  function _preValidatePurchase(address _beneficiary, uint256 _weiAmount) internal {\n    require(!paused);\n    super._preValidatePurchase(_beneficiary, _weiAmount);\n  }\n  \n  /**\n   * @dev Investors can claim refunds here if crowdsale is unsuccessful\n   */\n  function claimRefund() public {\n    require(isFinalized);\n    require(!goalReached());\n\n    vault.refund(msg.sender);\n  }\n\n  /**\n   * @dev Checks whether funding goal was reached.\n   * @return Whether funding goal was reached\n   */\n  function goalReached() public view returns (bool) {\n    return weiRaised.add(presaleInvestment)  >= goal;\n  }\n\n  /**\n   * @dev vault finalization task, called when owner calls finalize()\n   */\n  function finalization() internal {\n    if (goalReached()) {\n      vault.close();\n    } else {\n      vault.enableRefunds();\n    }\n\n    super.finalization();\n  }\n\n  /**\n   * @dev Overrides Crowdsale fund forwarding, sending funds to vault.\n   */\n  function _forwardFunds() internal {\n    vault.deposit.value(msg.value)(msg.sender);\n  }\n  \n\n}\n",
  "sourcePath": "/Users/takeo/Application/blockchain/Peace-Coin/ico-contracts/contracts/PeaceCoinCrowdsale.sol",
  "compiler": {
    "name": "solc",
    "version": "0.4.24+commit.e67f0147.Emscripten.clang"
  },
  "schemaVersion": "2.0.0",
  "updatedAt": "2018-06-10T06:46:10.688Z"
}